{
  "_format": "hh-sol-artifact-1",
  "contractName": "MyToken",
  "sourceName": "contracts/MyToken.sol",
  "abi": [
    {
      "inputs": [],
      "stateMutability": "nonpayable",
      "type": "constructor"
    },
    {
      "inputs": [],
      "name": "AccessControlBadConfirmation",
      "type": "error"
    },
    {
      "inputs": [
        {
          "internalType": "address",
          "name": "account",
          "type": "address"
        },
        {
          "internalType": "bytes32",
          "name": "neededRole",
          "type": "bytes32"
        }
      ],
      "name": "AccessControlUnauthorizedAccount",
      "type": "error"
    },
    {
      "inputs": [],
      "name": "CheckpointUnorderedInsertion",
      "type": "error"
    },
    {
      "inputs": [],
      "name": "ECDSAInvalidSignature",
      "type": "error"
    },
    {
      "inputs": [
        {
          "internalType": "uint256",
          "name": "length",
          "type": "uint256"
        }
      ],
      "name": "ECDSAInvalidSignatureLength",
      "type": "error"
    },
    {
      "inputs": [
        {
          "internalType": "bytes32",
          "name": "s",
          "type": "bytes32"
        }
      ],
      "name": "ECDSAInvalidSignatureS",
      "type": "error"
    },
    {
      "inputs": [
        {
          "internalType": "uint256",
          "name": "increasedSupply",
          "type": "uint256"
        },
        {
          "internalType": "uint256",
          "name": "cap",
          "type": "uint256"
        }
      ],
      "name": "ERC20ExceededSafeSupply",
      "type": "error"
    },
    {
      "inputs": [
        {
          "internalType": "address",
          "name": "spender",
          "type": "address"
        },
        {
          "internalType": "uint256",
          "name": "allowance",
          "type": "uint256"
        },
        {
          "internalType": "uint256",
          "name": "needed",
          "type": "uint256"
        }
      ],
      "name": "ERC20InsufficientAllowance",
      "type": "error"
    },
    {
      "inputs": [
        {
          "internalType": "address",
          "name": "sender",
          "type": "address"
        },
        {
          "internalType": "uint256",
          "name": "balance",
          "type": "uint256"
        },
        {
          "internalType": "uint256",
          "name": "needed",
          "type": "uint256"
        }
      ],
      "name": "ERC20InsufficientBalance",
      "type": "error"
    },
    {
      "inputs": [
        {
          "internalType": "address",
          "name": "approver",
          "type": "address"
        }
      ],
      "name": "ERC20InvalidApprover",
      "type": "error"
    },
    {
      "inputs": [
        {
          "internalType": "address",
          "name": "receiver",
          "type": "address"
        }
      ],
      "name": "ERC20InvalidReceiver",
      "type": "error"
    },
    {
      "inputs": [
        {
          "internalType": "address",
          "name": "sender",
          "type": "address"
        }
      ],
      "name": "ERC20InvalidSender",
      "type": "error"
    },
    {
      "inputs": [
        {
          "internalType": "address",
          "name": "spender",
          "type": "address"
        }
      ],
      "name": "ERC20InvalidSpender",
      "type": "error"
    },
    {
      "inputs": [
        {
          "internalType": "uint256",
          "name": "deadline",
          "type": "uint256"
        }
      ],
      "name": "ERC2612ExpiredSignature",
      "type": "error"
    },
    {
      "inputs": [
        {
          "internalType": "address",
          "name": "signer",
          "type": "address"
        },
        {
          "internalType": "address",
          "name": "owner",
          "type": "address"
        }
      ],
      "name": "ERC2612InvalidSigner",
      "type": "error"
    },
    {
      "inputs": [
        {
          "internalType": "uint256",
          "name": "timepoint",
          "type": "uint256"
        },
        {
          "internalType": "uint48",
          "name": "clock",
          "type": "uint48"
        }
      ],
      "name": "ERC5805FutureLookup",
      "type": "error"
    },
    {
      "inputs": [],
      "name": "ERC6372InconsistentClock",
      "type": "error"
    },
    {
      "inputs": [
        {
          "internalType": "address",
          "name": "account",
          "type": "address"
        },
        {
          "internalType": "uint256",
          "name": "currentNonce",
          "type": "uint256"
        }
      ],
      "name": "InvalidAccountNonce",
      "type": "error"
    },
    {
      "inputs": [],
      "name": "InvalidShortString",
      "type": "error"
    },
    {
      "inputs": [
        {
          "internalType": "uint8",
          "name": "bits",
          "type": "uint8"
        },
        {
          "internalType": "uint256",
          "name": "value",
          "type": "uint256"
        }
      ],
      "name": "SafeCastOverflowedUintDowncast",
      "type": "error"
    },
    {
      "inputs": [
        {
          "internalType": "string",
          "name": "str",
          "type": "string"
        }
      ],
      "name": "StringTooLong",
      "type": "error"
    },
    {
      "inputs": [
        {
          "internalType": "uint256",
          "name": "expiry",
          "type": "uint256"
        }
      ],
      "name": "VotesExpiredSignature",
      "type": "error"
    },
    {
      "anonymous": false,
      "inputs": [
        {
          "indexed": true,
          "internalType": "address",
          "name": "owner",
          "type": "address"
        },
        {
          "indexed": true,
          "internalType": "address",
          "name": "spender",
          "type": "address"
        },
        {
          "indexed": false,
          "internalType": "uint256",
          "name": "value",
          "type": "uint256"
        }
      ],
      "name": "Approval",
      "type": "event"
    },
    {
      "anonymous": false,
      "inputs": [
        {
          "indexed": true,
          "internalType": "address",
          "name": "delegator",
          "type": "address"
        },
        {
          "indexed": true,
          "internalType": "address",
          "name": "fromDelegate",
          "type": "address"
        },
        {
          "indexed": true,
          "internalType": "address",
          "name": "toDelegate",
          "type": "address"
        }
      ],
      "name": "DelegateChanged",
      "type": "event"
    },
    {
      "anonymous": false,
      "inputs": [
        {
          "indexed": true,
          "internalType": "address",
          "name": "delegate",
          "type": "address"
        },
        {
          "indexed": false,
          "internalType": "uint256",
          "name": "previousVotes",
          "type": "uint256"
        },
        {
          "indexed": false,
          "internalType": "uint256",
          "name": "newVotes",
          "type": "uint256"
        }
      ],
      "name": "DelegateVotesChanged",
      "type": "event"
    },
    {
      "anonymous": false,
      "inputs": [],
      "name": "EIP712DomainChanged",
      "type": "event"
    },
    {
      "anonymous": false,
      "inputs": [
        {
          "indexed": true,
          "internalType": "bytes32",
          "name": "role",
          "type": "bytes32"
        },
        {
          "indexed": true,
          "internalType": "bytes32",
          "name": "previousAdminRole",
          "type": "bytes32"
        },
        {
          "indexed": true,
          "internalType": "bytes32",
          "name": "newAdminRole",
          "type": "bytes32"
        }
      ],
      "name": "RoleAdminChanged",
      "type": "event"
    },
    {
      "anonymous": false,
      "inputs": [
        {
          "indexed": true,
          "internalType": "bytes32",
          "name": "role",
          "type": "bytes32"
        },
        {
          "indexed": true,
          "internalType": "address",
          "name": "account",
          "type": "address"
        },
        {
          "indexed": true,
          "internalType": "address",
          "name": "sender",
          "type": "address"
        }
      ],
      "name": "RoleGranted",
      "type": "event"
    },
    {
      "anonymous": false,
      "inputs": [
        {
          "indexed": true,
          "internalType": "bytes32",
          "name": "role",
          "type": "bytes32"
        },
        {
          "indexed": true,
          "internalType": "address",
          "name": "account",
          "type": "address"
        },
        {
          "indexed": true,
          "internalType": "address",
          "name": "sender",
          "type": "address"
        }
      ],
      "name": "RoleRevoked",
      "type": "event"
    },
    {
      "anonymous": false,
      "inputs": [
        {
          "indexed": true,
          "internalType": "address",
          "name": "from",
          "type": "address"
        },
        {
          "indexed": true,
          "internalType": "address",
          "name": "to",
          "type": "address"
        },
        {
          "indexed": false,
          "internalType": "uint256",
          "name": "value",
          "type": "uint256"
        }
      ],
      "name": "Transfer",
      "type": "event"
    },
    {
      "inputs": [],
      "name": "CLOCK_MODE",
      "outputs": [
        {
          "internalType": "string",
          "name": "",
          "type": "string"
        }
      ],
      "stateMutability": "view",
      "type": "function"
    },
    {
      "inputs": [],
      "name": "DEFAULT_ADMIN_ROLE",
      "outputs": [
        {
          "internalType": "bytes32",
          "name": "",
          "type": "bytes32"
        }
      ],
      "stateMutability": "view",
      "type": "function"
    },
    {
      "inputs": [],
      "name": "DOMAIN_SEPARATOR",
      "outputs": [
        {
          "internalType": "bytes32",
          "name": "",
          "type": "bytes32"
        }
      ],
      "stateMutability": "view",
      "type": "function"
    },
    {
      "inputs": [],
      "name": "MINTER_ROLE",
      "outputs": [
        {
          "internalType": "bytes32",
          "name": "",
          "type": "bytes32"
        }
      ],
      "stateMutability": "view",
      "type": "function"
    },
    {
      "inputs": [
        {
          "internalType": "address",
          "name": "owner",
          "type": "address"
        },
        {
          "internalType": "address",
          "name": "spender",
          "type": "address"
        }
      ],
      "name": "allowance",
      "outputs": [
        {
          "internalType": "uint256",
          "name": "",
          "type": "uint256"
        }
      ],
      "stateMutability": "view",
      "type": "function"
    },
    {
      "inputs": [
        {
          "internalType": "address",
          "name": "spender",
          "type": "address"
        },
        {
          "internalType": "uint256",
          "name": "value",
          "type": "uint256"
        }
      ],
      "name": "approve",
      "outputs": [
        {
          "internalType": "bool",
          "name": "",
          "type": "bool"
        }
      ],
      "stateMutability": "nonpayable",
      "type": "function"
    },
    {
      "inputs": [
        {
          "internalType": "address",
          "name": "account",
          "type": "address"
        }
      ],
      "name": "balanceOf",
      "outputs": [
        {
          "internalType": "uint256",
          "name": "",
          "type": "uint256"
        }
      ],
      "stateMutability": "view",
      "type": "function"
    },
    {
      "inputs": [
        {
          "internalType": "address",
          "name": "account",
          "type": "address"
        },
        {
          "internalType": "uint32",
          "name": "pos",
          "type": "uint32"
        }
      ],
      "name": "checkpoints",
      "outputs": [
        {
          "components": [
            {
              "internalType": "uint48",
              "name": "_key",
              "type": "uint48"
            },
            {
              "internalType": "uint208",
              "name": "_value",
              "type": "uint208"
            }
          ],
          "internalType": "struct Checkpoints.Checkpoint208",
          "name": "",
          "type": "tuple"
        }
      ],
      "stateMutability": "view",
      "type": "function"
    },
    {
      "inputs": [],
      "name": "clock",
      "outputs": [
        {
          "internalType": "uint48",
          "name": "",
          "type": "uint48"
        }
      ],
      "stateMutability": "view",
      "type": "function"
    },
    {
      "inputs": [],
      "name": "decimals",
      "outputs": [
        {
          "internalType": "uint8",
          "name": "",
          "type": "uint8"
        }
      ],
      "stateMutability": "view",
      "type": "function"
    },
    {
      "inputs": [
        {
          "internalType": "address",
          "name": "delegatee",
          "type": "address"
        }
      ],
      "name": "delegate",
      "outputs": [],
      "stateMutability": "nonpayable",
      "type": "function"
    },
    {
      "inputs": [
        {
          "internalType": "address",
          "name": "delegatee",
          "type": "address"
        },
        {
          "internalType": "uint256",
          "name": "nonce",
          "type": "uint256"
        },
        {
          "internalType": "uint256",
          "name": "expiry",
          "type": "uint256"
        },
        {
          "internalType": "uint8",
          "name": "v",
          "type": "uint8"
        },
        {
          "internalType": "bytes32",
          "name": "r",
          "type": "bytes32"
        },
        {
          "internalType": "bytes32",
          "name": "s",
          "type": "bytes32"
        }
      ],
      "name": "delegateBySig",
      "outputs": [],
      "stateMutability": "nonpayable",
      "type": "function"
    },
    {
      "inputs": [
        {
          "internalType": "address",
          "name": "account",
          "type": "address"
        }
      ],
      "name": "delegates",
      "outputs": [
        {
          "internalType": "address",
          "name": "",
          "type": "address"
        }
      ],
      "stateMutability": "view",
      "type": "function"
    },
    {
      "inputs": [],
      "name": "eip712Domain",
      "outputs": [
        {
          "internalType": "bytes1",
          "name": "fields",
          "type": "bytes1"
        },
        {
          "internalType": "string",
          "name": "name",
          "type": "string"
        },
        {
          "internalType": "string",
          "name": "version",
          "type": "string"
        },
        {
          "internalType": "uint256",
          "name": "chainId",
          "type": "uint256"
        },
        {
          "internalType": "address",
          "name": "verifyingContract",
          "type": "address"
        },
        {
          "internalType": "bytes32",
          "name": "salt",
          "type": "bytes32"
        },
        {
          "internalType": "uint256[]",
          "name": "extensions",
          "type": "uint256[]"
        }
      ],
      "stateMutability": "view",
      "type": "function"
    },
    {
      "inputs": [
        {
          "internalType": "uint256",
          "name": "timepoint",
          "type": "uint256"
        }
      ],
      "name": "getPastTotalSupply",
      "outputs": [
        {
          "internalType": "uint256",
          "name": "",
          "type": "uint256"
        }
      ],
      "stateMutability": "view",
      "type": "function"
    },
    {
      "inputs": [
        {
          "internalType": "address",
          "name": "account",
          "type": "address"
        },
        {
          "internalType": "uint256",
          "name": "timepoint",
          "type": "uint256"
        }
      ],
      "name": "getPastVotes",
      "outputs": [
        {
          "internalType": "uint256",
          "name": "",
          "type": "uint256"
        }
      ],
      "stateMutability": "view",
      "type": "function"
    },
    {
      "inputs": [
        {
          "internalType": "bytes32",
          "name": "role",
          "type": "bytes32"
        }
      ],
      "name": "getRoleAdmin",
      "outputs": [
        {
          "internalType": "bytes32",
          "name": "",
          "type": "bytes32"
        }
      ],
      "stateMutability": "view",
      "type": "function"
    },
    {
      "inputs": [
        {
          "internalType": "address",
          "name": "account",
          "type": "address"
        }
      ],
      "name": "getVotes",
      "outputs": [
        {
          "internalType": "uint256",
          "name": "",
          "type": "uint256"
        }
      ],
      "stateMutability": "view",
      "type": "function"
    },
    {
      "inputs": [
        {
          "internalType": "bytes32",
          "name": "role",
          "type": "bytes32"
        },
        {
          "internalType": "address",
          "name": "account",
          "type": "address"
        }
      ],
      "name": "grantRole",
      "outputs": [],
      "stateMutability": "nonpayable",
      "type": "function"
    },
    {
      "inputs": [
        {
          "internalType": "bytes32",
          "name": "role",
          "type": "bytes32"
        },
        {
          "internalType": "address",
          "name": "account",
          "type": "address"
        }
      ],
      "name": "hasRole",
      "outputs": [
        {
          "internalType": "bool",
          "name": "",
          "type": "bool"
        }
      ],
      "stateMutability": "view",
      "type": "function"
    },
    {
      "inputs": [
        {
          "internalType": "address",
          "name": "to",
          "type": "address"
        },
        {
          "internalType": "uint256",
          "name": "amount",
          "type": "uint256"
        }
      ],
      "name": "mint",
      "outputs": [],
      "stateMutability": "nonpayable",
      "type": "function"
    },
    {
      "inputs": [],
      "name": "name",
      "outputs": [
        {
          "internalType": "string",
          "name": "",
          "type": "string"
        }
      ],
      "stateMutability": "view",
      "type": "function"
    },
    {
      "inputs": [
        {
          "internalType": "address",
          "name": "owner",
          "type": "address"
        }
      ],
      "name": "nonces",
      "outputs": [
        {
          "internalType": "uint256",
          "name": "",
          "type": "uint256"
        }
      ],
      "stateMutability": "view",
      "type": "function"
    },
    {
      "inputs": [
        {
          "internalType": "address",
          "name": "account",
          "type": "address"
        }
      ],
      "name": "numCheckpoints",
      "outputs": [
        {
          "internalType": "uint32",
          "name": "",
          "type": "uint32"
        }
      ],
      "stateMutability": "view",
      "type": "function"
    },
    {
      "inputs": [
        {
          "internalType": "address",
          "name": "owner",
          "type": "address"
        },
        {
          "internalType": "address",
          "name": "spender",
          "type": "address"
        },
        {
          "internalType": "uint256",
          "name": "value",
          "type": "uint256"
        },
        {
          "internalType": "uint256",
          "name": "deadline",
          "type": "uint256"
        },
        {
          "internalType": "uint8",
          "name": "v",
          "type": "uint8"
        },
        {
          "internalType": "bytes32",
          "name": "r",
          "type": "bytes32"
        },
        {
          "internalType": "bytes32",
          "name": "s",
          "type": "bytes32"
        }
      ],
      "name": "permit",
      "outputs": [],
      "stateMutability": "nonpayable",
      "type": "function"
    },
    {
      "inputs": [
        {
          "internalType": "bytes32",
          "name": "role",
          "type": "bytes32"
        },
        {
          "internalType": "address",
          "name": "callerConfirmation",
          "type": "address"
        }
      ],
      "name": "renounceRole",
      "outputs": [],
      "stateMutability": "nonpayable",
      "type": "function"
    },
    {
      "inputs": [
        {
          "internalType": "bytes32",
          "name": "role",
          "type": "bytes32"
        },
        {
          "internalType": "address",
          "name": "account",
          "type": "address"
        }
      ],
      "name": "revokeRole",
      "outputs": [],
      "stateMutability": "nonpayable",
      "type": "function"
    },
    {
      "inputs": [
        {
          "internalType": "bytes4",
          "name": "interfaceId",
          "type": "bytes4"
        }
      ],
      "name": "supportsInterface",
      "outputs": [
        {
          "internalType": "bool",
          "name": "",
          "type": "bool"
        }
      ],
      "stateMutability": "view",
      "type": "function"
    },
    {
      "inputs": [],
      "name": "symbol",
      "outputs": [
        {
          "internalType": "string",
          "name": "",
          "type": "string"
        }
      ],
      "stateMutability": "view",
      "type": "function"
    },
    {
      "inputs": [],
      "name": "totalSupply",
      "outputs": [
        {
          "internalType": "uint256",
          "name": "",
          "type": "uint256"
        }
      ],
      "stateMutability": "view",
      "type": "function"
    },
    {
      "inputs": [
        {
          "internalType": "address",
          "name": "to",
          "type": "address"
        },
        {
          "internalType": "uint256",
          "name": "value",
          "type": "uint256"
        }
      ],
      "name": "transfer",
      "outputs": [
        {
          "internalType": "bool",
          "name": "",
          "type": "bool"
        }
      ],
      "stateMutability": "nonpayable",
      "type": "function"
    },
    {
      "inputs": [
        {
          "internalType": "address",
          "name": "from",
          "type": "address"
        },
        {
          "internalType": "address",
          "name": "to",
          "type": "address"
        },
        {
          "internalType": "uint256",
          "name": "value",
          "type": "uint256"
        }
      ],
      "name": "transferFrom",
      "outputs": [
        {
          "internalType": "bool",
          "name": "",
          "type": "bool"
        }
      ],
      "stateMutability": "nonpayable",
      "type": "function"
    }
  ],
  "bytecode": "0x6101606040523480156200001257600080fd5b506040518060400160405280600781526020016626bcaa37b5b2b760c91b81525080604051806040016040528060018152602001603160f81b8152506040518060400160405280600781526020016626bcaa37b5b2b760c91b815250604051806040016040528060038152602001624d544b60e81b81525081600390816200009b919062000384565b506004620000aa828262000384565b50620000bc91508390506005620001a6565b61012052620000cd816006620001a6565b61014052815160208084019190912060e052815190820120610100524660a0526200015b60e05161010051604080517f8b73c3c69bb8fe3d512ecc4cf759cc79239f7b179b0ffacaa9a75d522b39400f60208201529081019290925260608201524660808201523060a082015260009060c00160405160208183030381529060405280519060200120905090565b60805250503060c0525062000172600033620001df565b506200019f7f9f2df0fed2c77648de5860a4cc508cd0818c85b8b8a1ab4ceeef8d981c8956a633620001df565b50620004c6565b6000602083511015620001c657620001be8362000291565b9050620001d9565b81620001d3848262000384565b5060ff90505b92915050565b6000828152600b602090815260408083206001600160a01b038516845290915281205460ff1662000288576000838152600b602090815260408083206001600160a01b03861684529091529020805460ff191660011790556200023f3390565b6001600160a01b0316826001600160a01b0316847f2f8788117e7eff1d82e926ec794901d17c78024a50270940304540a733656f0d60405160405180910390a4506001620001d9565b506000620001d9565b600080829050601f81511115620002c8578260405163305a27a960e01b8152600401620002bf919062000450565b60405180910390fd5b8051620002d582620004a1565b179392505050565b634e487b7160e01b600052604160045260246000fd5b600181811c908216806200030857607f821691505b6020821081036200032957634e487b7160e01b600052602260045260246000fd5b50919050565b601f8211156200037f576000816000526020600020601f850160051c810160208610156200035a5750805b601f850160051c820191505b818110156200037b5782815560010162000366565b5050505b505050565b81516001600160401b03811115620003a057620003a0620002dd565b620003b881620003b18454620002f3565b846200032f565b602080601f831160018114620003f05760008415620003d75750858301515b600019600386901b1c1916600185901b1785556200037b565b600085815260208120601f198616915b82811015620004215788860151825594840194600190910190840162000400565b5085821015620004405787850151600019600388901b60f8161c191681555b5050505050600190811b01905550565b60006020808352835180602085015260005b81811015620004805785810183015185820160400152820162000462565b506000604082860101526040601f19601f8301168501019250505092915050565b80516020808301519190811015620003295760001960209190910360031b1b16919050565b60805160a05160c05160e05161010051610120516101405161226b6200052160003960006110950152600061106801526000610dc301526000610d9b01526000610cf601526000610d2001526000610d4a015261226b6000f3fe608060405234801561001057600080fd5b50600436106101f05760003560e01c806370a082311161010f578063a217fddf116100a2578063d539139311610071578063d539139314610471578063d547741f14610498578063dd62ed3e146104ab578063f1127ed8146104e457600080fd5b8063a217fddf14610430578063a9059cbb14610438578063c3cda5201461044b578063d505accf1461045e57600080fd5b806391d14854116100de57806391d14854146103e357806391ddadf4146103f657806395d89b41146104155780639ab24eb01461041d57600080fd5b806370a08231146103795780637ecebe00146103a257806384b0196e146103b55780638e539e8c146103d057600080fd5b80633644e515116101875780634bf5d7e9116101565780634bf5d7e9146102f2578063587cde1e146102fa5780635c19a95c1461033e5780636fcfff451461035157600080fd5b80633644e515146102b157806336568abe146102b95780633a46b1a8146102cc57806340c10f19146102df57600080fd5b806323b872dd116101c357806323b872dd14610257578063248a9ca31461026a5780632f2ff15d1461028d578063313ce567146102a257600080fd5b806301ffc9a7146101f557806306fdde031461021d578063095ea7b31461023257806318160ddd14610245575b600080fd5b610208610203366004611dd9565b610523565b60405190151581526020015b60405180910390f35b61022561055a565b6040516102149190611e49565b610208610240366004611e78565b6105ec565b6002545b604051908152602001610214565b610208610265366004611ea2565b610604565b610249610278366004611ede565b6000908152600b602052604090206001015490565b6102a061029b366004611ef7565b610628565b005b60405160128152602001610214565b610249610653565b6102a06102c7366004611ef7565b610662565b6102496102da366004611e78565b61069a565b6102a06102ed366004611e78565b610720565b610225610754565b610326610308366004611f23565b6001600160a01b039081166000908152600860205260409020541690565b6040516001600160a01b039091168152602001610214565b6102a061034c366004611f23565b6107cc565b61036461035f366004611f23565b6107db565b60405163ffffffff9091168152602001610214565b610249610387366004611f23565b6001600160a01b031660009081526020819052604090205490565b6102496103b0366004611f23565b6107e6565b6103bd6107f1565b6040516102149796959493929190611f3e565b6102496103de366004611ede565b610837565b6102086103f1366004611ef7565b6108a1565b6103fe6108cc565b60405165ffffffffffff9091168152602001610214565b6102256108d6565b61024961042b366004611f23565b6108e5565b610249600081565b610208610446366004611e78565b610915565b6102a0610459366004611fe8565b610923565b6102a061046c366004612040565b6109e0565b6102497f9f2df0fed2c77648de5860a4cc508cd0818c85b8b8a1ab4ceeef8d981c8956a681565b6102a06104a6366004611ef7565b610b1a565b6102496104b93660046120aa565b6001600160a01b03918216600090815260016020908152604080832093909416825291909152205490565b6104f76104f23660046120d4565b610b3f565b60408051825165ffffffffffff1681526020928301516001600160d01b03169281019290925201610214565b60006001600160e01b03198216637965db0b60e01b148061055457506301ffc9a760e01b6001600160e01b03198316145b92915050565b60606003805461056990612114565b80601f016020809104026020016040519081016040528092919081815260200182805461059590612114565b80156105e25780601f106105b7576101008083540402835291602001916105e2565b820191906000526020600020905b8154815290600101906020018083116105c557829003601f168201915b5050505050905090565b6000336105fa818585610b64565b5060019392505050565b600033610612858285610b71565b61061d858585610be9565b506001949350505050565b6000828152600b602052604090206001015461064381610c48565b61064d8383610c55565b50505050565b600061065d610ce9565b905090565b6001600160a01b038116331461068b5760405163334bd91960e11b815260040160405180910390fd5b6106958282610e14565b505050565b6000806106a56108cc565b90508065ffffffffffff1683106106e557604051637669fc0f60e11b81526004810184905265ffffffffffff821660248201526044015b60405180910390fd5b61070f6106f184610e81565b6001600160a01b038616600090815260096020526040902090610eb8565b6001600160d01b0316949350505050565b7f9f2df0fed2c77648de5860a4cc508cd0818c85b8b8a1ab4ceeef8d981c8956a661074a81610c48565b6106958383610f6e565b606061075e610fa4565b65ffffffffffff1661076e6108cc565b65ffffffffffff1614610794576040516301bfc1c560e61b815260040160405180910390fd5b5060408051808201909152601d81527f6d6f64653d626c6f636b6e756d6265722666726f6d3d64656661756c74000000602082015290565b336107d78183610faf565b5050565b600061055482611021565b600061055482611043565b600060608060008060006060610805611061565b61080d61108e565b60408051600080825260208201909252600f60f81b9b939a50919850469750309650945092509050565b6000806108426108cc565b90508065ffffffffffff16831061087d57604051637669fc0f60e11b81526004810184905265ffffffffffff821660248201526044016106dc565b61089161088984610e81565b600a90610eb8565b6001600160d01b03169392505050565b6000918252600b602090815260408084206001600160a01b0393909316845291905290205460ff1690565b600061065d610fa4565b60606004805461056990612114565b6001600160a01b0381166000908152600960205260408120610906906110bb565b6001600160d01b031692915050565b6000336105fa818585610be9565b8342111561094757604051632341d78760e11b8152600481018590526024016106dc565b604080517fe48329057bfd03d55e49b547132e39cffd9c1820ad7b9d4c5307691425d15adf60208201526001600160a01b0388169181019190915260608101869052608081018590526000906109c1906109b99060a001604051602081830303815290604052805190602001206110f4565b858585611121565b90506109cd818761114f565b6109d78188610faf565b50505050505050565b83421115610a045760405163313c898160e11b8152600481018590526024016106dc565b60007f6e71edae12b1b97f4d1f60370fef10105fa2faae0126114a169c64845d6126c9888888610a518c6001600160a01b0316600090815260076020526040902080546001810190915590565b6040805160208101969096526001600160a01b0394851690860152929091166060840152608083015260a082015260c0810186905260e0016040516020818303038152906040528051906020012090506000610aac826110f4565b90506000610abc82878787611121565b9050896001600160a01b0316816001600160a01b031614610b03576040516325c0072360e11b81526001600160a01b0380831660048301528b1660248201526044016106dc565b610b0e8a8a8a610b64565b50505050505050505050565b6000828152600b6020526040902060010154610b3581610c48565b61064d8383610e14565b6040805180820190915260008082526020820152610b5d83836111a2565b9392505050565b61069583838360016111d8565b6001600160a01b03838116600090815260016020908152604080832093861683529290522054600019811461064d5781811015610bda57604051637dc7a0d960e11b81526001600160a01b038416600482015260248101829052604481018390526064016106dc565b61064d848484840360006111d8565b6001600160a01b038316610c1357604051634b637e8f60e11b8152600060048201526024016106dc565b6001600160a01b038216610c3d5760405163ec442f0560e01b8152600060048201526024016106dc565b6106958383836112ad565b610c5281336112b8565b50565b6000610c6183836108a1565b610ce1576000838152600b602090815260408083206001600160a01b03861684529091529020805460ff19166001179055610c993390565b6001600160a01b0316826001600160a01b0316847f2f8788117e7eff1d82e926ec794901d17c78024a50270940304540a733656f0d60405160405180910390a4506001610554565b506000610554565b6000306001600160a01b037f000000000000000000000000000000000000000000000000000000000000000016148015610d4257507f000000000000000000000000000000000000000000000000000000000000000046145b15610d6c57507f000000000000000000000000000000000000000000000000000000000000000090565b61065d604080517f8b73c3c69bb8fe3d512ecc4cf759cc79239f7b179b0ffacaa9a75d522b39400f60208201527f0000000000000000000000000000000000000000000000000000000000000000918101919091527f000000000000000000000000000000000000000000000000000000000000000060608201524660808201523060a082015260009060c00160405160208183030381529060405280519060200120905090565b6000610e2083836108a1565b15610ce1576000838152600b602090815260408083206001600160a01b0386168085529252808320805460ff1916905551339286917ff6391f5c32d9c69d2a47ea670b442974b53935d1edc7fd64eb21e047a839171b9190a4506001610554565b600065ffffffffffff821115610eb4576040516306dfcc6560e41b815260306004820152602481018390526044016106dc565b5090565b815460009081816005811115610f17576000610ed3846112f1565b610edd9085612164565b60008881526020902090915081015465ffffffffffff9081169087161015610f0757809150610f15565b610f12816001612177565b92505b505b6000610f25878785856113d9565b90508015610f6057610f4a87610f3c600184612164565b600091825260209091200190565b54600160301b90046001600160d01b0316610f63565b60005b979650505050505050565b6001600160a01b038216610f985760405163ec442f0560e01b8152600060048201526024016106dc565b6107d7600083836112ad565b600061065d43610e81565b6001600160a01b0382811660008181526008602052604080822080548686166001600160a01b0319821681179092559151919094169392849290917f3134e8a2e6d97e929a7e54011ea5485d7d196dd5f0ba4d4ef95803e8e3fc257f9190a4610695818361101c8661143b565b611459565b6001600160a01b038116600090815260096020526040812054610554906115c5565b6001600160a01b038116600090815260076020526040812054610554565b606061065d7f000000000000000000000000000000000000000000000000000000000000000060056115f6565b606061065d7f000000000000000000000000000000000000000000000000000000000000000060066115f6565b805460009080156110eb576110d583610f3c600184612164565b54600160301b90046001600160d01b0316610b5d565b60009392505050565b6000610554611101610ce9565b8360405161190160f01b8152600281019290925260228201526042902090565b600080600080611133888888886116a1565b9250925092506111438282611770565b50909695505050505050565b6001600160a01b0382166000908152600760205260409020805460018101909155818114610695576040516301d4b62360e61b81526001600160a01b0384166004820152602481018290526044016106dc565b60408051808201909152600080825260208201526001600160a01b0383166000908152600960205260409020610b5d9083611829565b6001600160a01b0384166112025760405163e602df0560e01b8152600060048201526024016106dc565b6001600160a01b03831661122c57604051634a1406b160e11b8152600060048201526024016106dc565b6001600160a01b038085166000908152600160209081526040808320938716835292905220829055801561064d57826001600160a01b0316846001600160a01b03167f8c5be1e5ebec7d5bd14f71427d1e84f3dd0314c0f7b2291e5b200ac8c7c3b9258460405161129f91815260200190565b60405180910390a350505050565b610695838383611899565b6112c282826108a1565b6107d75760405163e2517d3f60e01b81526001600160a01b0382166004820152602481018390526044016106dc565b60008160000361130357506000919050565b6000600161131084611900565b901c6001901b905060018184816113295761132961218a565b048201901c905060018184816113415761134161218a565b048201901c905060018184816113595761135961218a565b048201901c905060018184816113715761137161218a565b048201901c905060018184816113895761138961218a565b048201901c905060018184816113a1576113a161218a565b048201901c905060018184816113b9576113b961218a565b048201901c9050610b5d818285816113d3576113d361218a565b04611994565b60005b818310156114335760006113f084846119aa565b60008781526020902090915065ffffffffffff86169082015465ffffffffffff16111561141f5780925061142d565b61142a816001612177565b93505b506113dc565b509392505050565b6001600160a01b038116600090815260208190526040812054610554565b816001600160a01b0316836001600160a01b03161415801561147b5750600081115b15610695576001600160a01b03831615611523576001600160a01b038316600090815260096020526040812081906114be906119c56114b9866119d1565b611a05565b6001600160d01b031691506001600160d01b03169150846001600160a01b03167fdec2bacdd2f05b59de34da9b523dff8be42e5e38e818c82fdb0bae774387a7248383604051611518929190918252602082015260400190565b60405180910390a250505b6001600160a01b03821615610695576001600160a01b0382166000908152600960205260408120819061155c90611a3e6114b9866119d1565b6001600160d01b031691506001600160d01b03169150836001600160a01b03167fdec2bacdd2f05b59de34da9b523dff8be42e5e38e818c82fdb0bae774387a72483836040516115b6929190918252602082015260400190565b60405180910390a25050505050565b600063ffffffff821115610eb4576040516306dfcc6560e41b815260206004820152602481018390526044016106dc565b606060ff83146116105761160983611a4a565b9050610554565b81805461161c90612114565b80601f016020809104026020016040519081016040528092919081815260200182805461164890612114565b80156116955780601f1061166a57610100808354040283529160200191611695565b820191906000526020600020905b81548152906001019060200180831161167857829003601f168201915b50505050509050610554565b600080807f7fffffffffffffffffffffffffffffff5d576e7357a4501ddfe92f46681b20a08411156116dc5750600091506003905082611766565b604080516000808252602082018084528a905260ff891692820192909252606081018790526080810186905260019060a0016020604051602081039080840390855afa158015611730573d6000803e3d6000fd5b5050604051601f1901519150506001600160a01b03811661175c57506000925060019150829050611766565b9250600091508190505b9450945094915050565b6000826003811115611784576117846121a0565b0361178d575050565b60018260038111156117a1576117a16121a0565b036117bf5760405163f645eedf60e01b815260040160405180910390fd5b60028260038111156117d3576117d36121a0565b036117f45760405163fce698f760e01b8152600481018290526024016106dc565b6003826003811115611808576118086121a0565b036107d7576040516335e2f38360e21b8152600481018290526024016106dc565b6040805180820190915260008082526020820152826000018263ffffffff1681548110611858576118586121b6565b60009182526020918290206040805180820190915291015465ffffffffffff81168252600160301b90046001600160d01b0316918101919091529392505050565b6118a4838383611a89565b6001600160a01b0383166118f55760006118bd60025490565b90506001600160d01b03808211156118f257604051630e58ae9360e11b815260048101839052602481018290526044016106dc565b50505b610695838383611bb3565b600080608083901c1561191557608092831c92015b604083901c1561192757604092831c92015b602083901c1561193957602092831c92015b601083901c1561194b57601092831c92015b600883901c1561195d57600892831c92015b600483901c1561196f57600492831c92015b600283901c1561198157600292831c92015b600183901c156105545760010192915050565b60008183106119a35781610b5d565b5090919050565b60006119b960028484186121cc565b610b5d90848416612177565b6000610b5d82846121ee565b60006001600160d01b03821115610eb4576040516306dfcc6560e41b815260d06004820152602481018390526044016106dc565b600080611a31611a136108cc565b611a29611a1f886110bb565b868863ffffffff16565b879190611c29565b915091505b935093915050565b6000610b5d8284612215565b60606000611a5783611c37565b604080516020808252818301909252919250600091906020820181803683375050509182525060208101929092525090565b6001600160a01b038316611ab4578060026000828254611aa99190612177565b90915550611b269050565b6001600160a01b03831660009081526020819052604090205481811015611b075760405163391434e360e21b81526001600160a01b038516600482015260248101829052604481018390526064016106dc565b6001600160a01b03841660009081526020819052604090209082900390555b6001600160a01b038216611b4257600280548290039055611b61565b6001600160a01b03821660009081526020819052604090208054820190555b816001600160a01b0316836001600160a01b03167fddf252ad1be2c89b69c2b068fc378daa952ba7f163c4a11628f55a4df523b3ef83604051611ba691815260200190565b60405180910390a3505050565b6001600160a01b038316611bd557611bd2600a611a3e6114b9846119d1565b50505b6001600160a01b038216611bf757611bf4600a6119c56114b9846119d1565b50505b6001600160a01b0383811660009081526008602052604080822054858416835291205461069592918216911683611459565b600080611a31858585611c5f565b600060ff8216601f81111561055457604051632cd44ac360e21b815260040160405180910390fd5b825460009081908015611d7e576000611c7d87610f3c600185612164565b60408051808201909152905465ffffffffffff808216808452600160301b9092046001600160d01b031660208401529192509087161015611cd157604051632520601d60e01b815260040160405180910390fd5b805165ffffffffffff808816911603611d1d5784611cf488610f3c600186612164565b80546001600160d01b0392909216600160301b0265ffffffffffff909216919091179055611d6e565b6040805180820190915265ffffffffffff80881682526001600160d01b0380881660208085019182528b54600181018d5560008d81529190912094519151909216600160301b029216919091179101555b602001519250839150611a369050565b50506040805180820190915265ffffffffffff80851682526001600160d01b0380851660208085019182528854600181018a5560008a815291822095519251909316600160301b029190931617920191909155905081611a36565b600060208284031215611deb57600080fd5b81356001600160e01b031981168114610b5d57600080fd5b6000815180845260005b81811015611e2957602081850181015186830182015201611e0d565b506000602082860101526020601f19601f83011685010191505092915050565b602081526000610b5d6020830184611e03565b80356001600160a01b0381168114611e7357600080fd5b919050565b60008060408385031215611e8b57600080fd5b611e9483611e5c565b946020939093013593505050565b600080600060608486031215611eb757600080fd5b611ec084611e5c565b9250611ece60208501611e5c565b9150604084013590509250925092565b600060208284031215611ef057600080fd5b5035919050565b60008060408385031215611f0a57600080fd5b82359150611f1a60208401611e5c565b90509250929050565b600060208284031215611f3557600080fd5b610b5d82611e5c565b60ff60f81b881681526000602060e06020840152611f5f60e084018a611e03565b8381036040850152611f71818a611e03565b606085018990526001600160a01b038816608086015260a0850187905284810360c08601528551808252602080880193509091019060005b81811015611fc557835183529284019291840191600101611fa9565b50909c9b505050505050505050505050565b803560ff81168114611e7357600080fd5b60008060008060008060c0878903121561200157600080fd5b61200a87611e5c565b9550602087013594506040870135935061202660608801611fd7565b92506080870135915060a087013590509295509295509295565b600080600080600080600060e0888a03121561205b57600080fd5b61206488611e5c565b965061207260208901611e5c565b9550604088013594506060880135935061208e60808901611fd7565b925060a0880135915060c0880135905092959891949750929550565b600080604083850312156120bd57600080fd5b6120c683611e5c565b9150611f1a60208401611e5c565b600080604083850312156120e757600080fd5b6120f083611e5c565b9150602083013563ffffffff8116811461210957600080fd5b809150509250929050565b600181811c9082168061212857607f821691505b60208210810361214857634e487b7160e01b600052602260045260246000fd5b50919050565b634e487b7160e01b600052601160045260246000fd5b818103818111156105545761055461214e565b808201808211156105545761055461214e565b634e487b7160e01b600052601260045260246000fd5b634e487b7160e01b600052602160045260246000fd5b634e487b7160e01b600052603260045260246000fd5b6000826121e957634e487b7160e01b600052601260045260246000fd5b500490565b6001600160d01b0382811682821603908082111561220e5761220e61214e565b5092915050565b6001600160d01b0381811683821601908082111561220e5761220e61214e56fea26469706673582212206881594d7726642b584f05f09cd73a5e1e87fc96dcd6f6743b59d2a719315e7964736f6c63430008180033",
  "linkReferences": {},
  "deployedLinkReferences": {}
}