{
  "_format": "hh-sol-artifact-1",
  "contractName": "TokenizedBallot",
  "sourceName": "contracts/TokenizedBallot.sol",
  "abi": [
    {
      "inputs": [
        {
          "internalType": "bytes32[]",
          "name": "_proposalNames",
          "type": "bytes32[]"
        },
        {
          "internalType": "address",
          "name": "_tokenContract",
          "type": "address"
        },
        {
          "internalType": "uint256",
          "name": "_targetBlockNumber",
          "type": "uint256"
        }
      ],
      "stateMutability": "nonpayable",
      "type": "constructor"
    },
    {
      "inputs": [
        {
          "internalType": "address",
          "name": "voter",
          "type": "address"
        }
      ],
      "name": "getVotePower",
      "outputs": [
        {
          "internalType": "uint256",
          "name": "votePower_",
          "type": "uint256"
        }
      ],
      "stateMutability": "view",
      "type": "function"
    },
    {
      "inputs": [
        {
          "internalType": "uint256",
          "name": "",
          "type": "uint256"
        }
      ],
      "name": "proposals",
      "outputs": [
        {
          "internalType": "bytes32",
          "name": "name",
          "type": "bytes32"
        },
        {
          "internalType": "uint256",
          "name": "voteCount",
          "type": "uint256"
        }
      ],
      "stateMutability": "view",
      "type": "function"
    },
    {
      "inputs": [
        {
          "internalType": "address",
          "name": "",
          "type": "address"
        }
      ],
      "name": "spentVotePower",
      "outputs": [
        {
          "internalType": "uint256",
          "name": "",
          "type": "uint256"
        }
      ],
      "stateMutability": "view",
      "type": "function"
    },
    {
      "inputs": [],
      "name": "targetBlockNumber",
      "outputs": [
        {
          "internalType": "uint256",
          "name": "",
          "type": "uint256"
        }
      ],
      "stateMutability": "view",
      "type": "function"
    },
    {
      "inputs": [],
      "name": "tokenContract",
      "outputs": [
        {
          "internalType": "contract IMyToken",
          "name": "",
          "type": "address"
        }
      ],
      "stateMutability": "view",
      "type": "function"
    },
    {
      "inputs": [
        {
          "internalType": "uint256",
          "name": "proposal",
          "type": "uint256"
        },
        {
          "internalType": "uint256",
          "name": "amount",
          "type": "uint256"
        }
      ],
      "name": "vote",
      "outputs": [],
      "stateMutability": "nonpayable",
      "type": "function"
    },
    {
      "inputs": [],
      "name": "winnerName",
      "outputs": [
        {
          "internalType": "bytes32",
          "name": "winnerName_",
          "type": "bytes32"
        }
      ],
      "stateMutability": "view",
      "type": "function"
    },
    {
      "inputs": [],
      "name": "winningProposal",
      "outputs": [
        {
          "internalType": "uint256",
          "name": "winningProposal_",
          "type": "uint256"
        }
      ],
      "stateMutability": "view",
      "type": "function"
    }
  ],
  "bytecode": "0x60806040523480156200001157600080fd5b5060405162000e3838038062000e388339818101604052810190620000379190620003c2565b816000806101000a81548173ffffffffffffffffffffffffffffffffffffffff021916908373ffffffffffffffffffffffffffffffffffffffff160217905550806002819055504360025411620000c5576040517f08c379a0000000000000000000000000000000000000000000000000000000008152600401620000bc90620004c4565b60405180910390fd5b60005b8351811015620001545760016040518060400160405280868481518110620000f557620000f4620004e6565b5b6020026020010151815260200160008152509080600181540180825580915050600190039060005260206000209060020201600090919091909150600082015181600001556020820151816001015550508080600101915050620000c8565b5050505062000515565b6000604051905090565b600080fd5b600080fd5b600080fd5b6000601f19601f8301169050919050565b7f4e487b7100000000000000000000000000000000000000000000000000000000600052604160045260246000fd5b620001c28262000177565b810181811067ffffffffffffffff82111715620001e457620001e362000188565b5b80604052505050565b6000620001f96200015e565b9050620002078282620001b7565b919050565b600067ffffffffffffffff8211156200022a576200022962000188565b5b602082029050602081019050919050565b600080fd5b6000819050919050565b620002558162000240565b81146200026157600080fd5b50565b60008151905062000275816200024a565b92915050565b6000620002926200028c846200020c565b620001ed565b90508083825260208201905060208402830185811115620002b857620002b76200023b565b5b835b81811015620002e55780620002d0888262000264565b845260208401935050602081019050620002ba565b5050509392505050565b600082601f83011262000307576200030662000172565b5b8151620003198482602086016200027b565b91505092915050565b600073ffffffffffffffffffffffffffffffffffffffff82169050919050565b60006200034f8262000322565b9050919050565b620003618162000342565b81146200036d57600080fd5b50565b600081519050620003818162000356565b92915050565b6000819050919050565b6200039c8162000387565b8114620003a857600080fd5b50565b600081519050620003bc8162000391565b92915050565b600080600060608486031215620003de57620003dd62000168565b5b600084015167ffffffffffffffff811115620003ff57620003fe6200016d565b5b6200040d86828701620002ef565b9350506020620004208682870162000370565b92505060406200043386828701620003ab565b9150509250925092565b600082825260208201905092915050565b7f54617267657420626c6f636b206d75737420626520696e20746865206675747560008201527f7265000000000000000000000000000000000000000000000000000000000000602082015250565b6000620004ac6022836200043d565b9150620004b9826200044e565b604082019050919050565b60006020820190508181036000830152620004df816200049d565b9050919050565b7f4e487b7100000000000000000000000000000000000000000000000000000000600052603260045260246000fd5b61091380620005256000396000f3fe608060405234801561001057600080fd5b50600436106100885760003560e01c8063609ff1bd1161005b578063609ff1bd1461012a578063b384abef14610148578063bb9c092014610164578063e2ba53f01461019457610088565b8063013cf08b1461008d5780632a8cd29e146100be57806346a38bc8146100dc57806355a373d61461010c575b600080fd5b6100a760048036038101906100a29190610501565b6101b2565b6040516100b5929190610556565b60405180910390f35b6100c66101e6565b6040516100d3919061057f565b60405180910390f35b6100f660048036038101906100f191906105f8565b6101ec565b604051610103919061057f565b60405180910390f35b610114610204565b6040516101219190610684565b60405180910390f35b610132610228565b60405161013f919061057f565b60405180910390f35b610162600480360381019061015d919061069f565b6102aa565b005b61017e600480360381019061017991906105f8565b610391565b60405161018b919061057f565b60405180910390f35b61019c610492565b6040516101a991906106df565b60405180910390f35b600181815481106101c257600080fd5b90600052602060002090600202016000915090508060000154908060010154905082565b60025481565b60036020528060005260406000206000915090505481565b60008054906101000a900473ffffffffffffffffffffffffffffffffffffffff1681565b6000806000905060005b6001805490508110156102a5578160018281548110610254576102536106fa565b5b906000526020600020906002020160010154111561029857600181815481106102805761027f6106fa565b5b90600052602060002090600202016001015491508092505b8080600101915050610232565b505090565b60006102b533610391565b9050818110156102fa576040517f08c379a00000000000000000000000000000000000000000000000000000000081526004016102f1906107ac565b60405180910390fd5b81600360003373ffffffffffffffffffffffffffffffffffffffff1673ffffffffffffffffffffffffffffffffffffffff168152602001908152602001600020600082825461034991906107fb565b925050819055508160018481548110610365576103646106fa565b5b9060005260206000209060020201600101600082825461038591906107fb565b92505081905550505050565b60008060009054906101000a900473ffffffffffffffffffffffffffffffffffffffff1673ffffffffffffffffffffffffffffffffffffffff16633a46b1a88360016002546103e0919061082f565b6040518363ffffffff1660e01b81526004016103fd929190610872565b602060405180830381865afa15801561041a573d6000803e3d6000fd5b505050506040513d601f19601f8201168201806040525081019061043e91906108b0565b9050600360008373ffffffffffffffffffffffffffffffffffffffff1673ffffffffffffffffffffffffffffffffffffffff168152602001908152602001600020548161048b919061082f565b9050919050565b6000600161049e610228565b815481106104af576104ae6106fa565b5b906000526020600020906002020160000154905090565b600080fd5b6000819050919050565b6104de816104cb565b81146104e957600080fd5b50565b6000813590506104fb816104d5565b92915050565b600060208284031215610517576105166104c6565b5b6000610525848285016104ec565b91505092915050565b6000819050919050565b6105418161052e565b82525050565b610550816104cb565b82525050565b600060408201905061056b6000830185610538565b6105786020830184610547565b9392505050565b60006020820190506105946000830184610547565b92915050565b600073ffffffffffffffffffffffffffffffffffffffff82169050919050565b60006105c58261059a565b9050919050565b6105d5816105ba565b81146105e057600080fd5b50565b6000813590506105f2816105cc565b92915050565b60006020828403121561060e5761060d6104c6565b5b600061061c848285016105e3565b91505092915050565b6000819050919050565b600061064a6106456106408461059a565b610625565b61059a565b9050919050565b600061065c8261062f565b9050919050565b600061066e82610651565b9050919050565b61067e81610663565b82525050565b60006020820190506106996000830184610675565b92915050565b600080604083850312156106b6576106b56104c6565b5b60006106c4858286016104ec565b92505060206106d5858286016104ec565b9150509250929050565b60006020820190506106f46000830184610538565b92915050565b7f4e487b7100000000000000000000000000000000000000000000000000000000600052603260045260246000fd5b600082825260208201905092915050565b7f546f6b656e697a656442616c6c6f743a20496e73756666696369656e7420766f60008201527f74696e6720706f77657200000000000000000000000000000000000000000000602082015250565b6000610796602a83610729565b91506107a18261073a565b604082019050919050565b600060208201905081810360008301526107c581610789565b9050919050565b7f4e487b7100000000000000000000000000000000000000000000000000000000600052601160045260246000fd5b6000610806826104cb565b9150610811836104cb565b9250828201905080821115610829576108286107cc565b5b92915050565b600061083a826104cb565b9150610845836104cb565b925082820390508181111561085d5761085c6107cc565b5b92915050565b61086c816105ba565b82525050565b60006040820190506108876000830185610863565b6108946020830184610547565b9392505050565b6000815190506108aa816104d5565b92915050565b6000602082840312156108c6576108c56104c6565b5b60006108d48482850161089b565b9150509291505056fea26469706673582212204caf6d3fc825e791209027b02631be554f0b6c73240a8624a2f4178e23c661a464736f6c63430008180033",
  "linkReferences": {},
  "deployedLinkReferences": {}
}